:04000000FEEF7FF0A0
:101000000000026A000E016E036A700ED312D35004
:10101000FC0B0209D36E0F01396B3B6B936A956A27
:10102000090E8C6E240E8A6ED59ED59CD59AD596C7
:10103000D550F80B0209D56E3C0ED76EB00ED66EA9
:10104000F294D58EF2A427EF08F029EF08F022EFF2
:1010500008F0F2943C0ED76EB00ED66E014A022A0A
:101060000350D8A436EF08F038EF08F04DEF08F041
:101070003C0E01180210D8A440EF08F042EF08F02F
:101080004DEF08F0120E8C6E120E8A6E026A000E80
:10109000016E010E036E22EF08F00304D8A453EF93
:1010A00008F055EF08F06AEF08F01E0E0118021064
:1010B000D8A45DEF08F05FEF08F06AEF08F0240EA7
:1010C0008C6E090E8A6E026A000E016E020E036EAD
:1010D00022EF08F0020E0318D8A471EF08F073EFA6
:1010E00008F088EF08F03C0E01180210D8A47BEF3E
:1010F00008F07DEF08F088EF08F0120E8C6E120EEB
:101100008A6E026A000E016E030E036E22EF08F073
:10111000030E0318D8A48FEF08F091EF08F022EF28
:1011200008F01E0E01180210D8A499EF08F09BEFEA
:1011300008F022EF08F0090E8C6E240E8A6E026A07
:10114000000E016E036A22EF08F0FEEF7FF000014F
:0411500001EF08F0B3
:04FFFC00A7EF08F073
:020000040030CA
:0E000000FF380E3CFFBF85FF0FC00FE00F4022
:00000001FF
